:020000040000FA
:020000000528D1
:080008002428B0018316033027
:1000100085000130860001170B168B178312023002
:1000200086000F30B40086143720301C0230301C9C
:100030008600301C13280230860637200508282049
:10004000B300330E860013280130B0068B10090070
:1000500082070334063409340C3420308400060E41
:100060008007840AB40B3028203084000800003058
:10007000B1002C30B20000000000000000000000C1
:0A008000B10B3B28B20B3B2808002F
:00000001FF
